{
  "contractName": "CropInsurance",
  "abi": [
    {
      "inputs": [],
      "stateMutability": "nonpayable",
      "type": "constructor"
    },
    {
      "inputs": [
        {
          "internalType": "address",
          "name": "",
          "type": "address"
        }
      ],
      "name": "authorized",
      "outputs": [
        {
          "internalType": "bool",
          "name": "",
          "type": "bool"
        }
      ],
      "stateMutability": "view",
      "type": "function",
      "constant": true
    },
    {
      "inputs": [],
      "name": "contractDuration",
      "outputs": [
        {
          "internalType": "uint256",
          "name": "",
          "type": "uint256"
        }
      ],
      "stateMutability": "view",
      "type": "function",
      "constant": true
    },
    {
      "inputs": [],
      "name": "owner",
      "outputs": [
        {
          "internalType": "address",
          "name": "",
          "type": "address"
        }
      ],
      "stateMutability": "view",
      "type": "function",
      "constant": true
    },
    {
      "inputs": [
        {
          "internalType": "address",
          "name": "",
          "type": "address"
        }
      ],
      "name": "policies",
      "outputs": [
        {
          "internalType": "uint256",
          "name": "premium",
          "type": "uint256"
        },
        {
          "internalType": "bool",
          "name": "isActive",
          "type": "bool"
        },
        {
          "internalType": "uint256",
          "name": "claimAmount",
          "type": "uint256"
        }
      ],
      "stateMutability": "view",
      "type": "function",
      "constant": true
    },
    {
      "inputs": [
        {
          "internalType": "address",
          "name": "",
          "type": "address"
        }
      ],
      "name": "policyStartTime",
      "outputs": [
        {
          "internalType": "uint256",
          "name": "",
          "type": "uint256"
        }
      ],
      "stateMutability": "view",
      "type": "function",
      "constant": true
    },
    {
      "inputs": [
        {
          "internalType": "address",
          "name": "_address",
          "type": "address"
        }
      ],
      "name": "grantAccess",
      "outputs": [],
      "stateMutability": "nonpayable",
      "type": "function"
    },
    {
      "inputs": [
        {
          "internalType": "address",
          "name": "_address",
          "type": "address"
        }
      ],
      "name": "revokeAccess",
      "outputs": [],
      "stateMutability": "nonpayable",
      "type": "function"
    },
    {
      "inputs": [],
      "name": "buyInsurance",
      "outputs": [],
      "stateMutability": "payable",
      "type": "function",
      "payable": true
    },
    {
      "inputs": [
        {
          "internalType": "uint256",
          "name": "_claimAmount",
          "type": "uint256"
        }
      ],
      "name": "fileClaim",
      "outputs": [],
      "stateMutability": "nonpayable",
      "type": "function"
    },
    {
      "inputs": [
        {
          "internalType": "address",
          "name": "_policyHolder",
          "type": "address"
        }
      ],
      "name": "approveClaim",
      "outputs": [],
      "stateMutability": "nonpayable",
      "type": "function"
    },
    {
      "inputs": [],
      "name": "cancelPolicy",
      "outputs": [],
      "stateMutability": "nonpayable",
      "type": "function"
    },
    {
      "inputs": [],
      "name": "contractBalance",
      "outputs": [
        {
          "internalType": "uint256",
          "name": "",
          "type": "uint256"
        }
      ],
      "stateMutability": "view",
      "type": "function",
      "constant": true
    }
  ],
  "bytecode": "0x608060405262278d0060035534801561001757600080fd5b50336000806101000a81548173ffffffffffffffffffffffffffffffffffffffff021916908373ffffffffffffffffffffffffffffffffffffffff160217905550611267806100676000396000f3fe6080604052600436106100a75760003560e01c806385e685311161006457806385e685311461019d5780638b7afe2e146101c65780638da5cb5b146101f1578063b91816111461021c578063d61909f914610259578063dbb773d914610282576100a7565b80630ae5e739146100ac5780631ae3ca5d146100d557806320e98698146101125780634ef2cc00146101515780636a246e701461016857806371618c7914610193575b600080fd5b3480156100b857600080fd5b506100d360048036038101906100ce9190610bfc565b6102ab565b005b3480156100e157600080fd5b506100fc60048036038101906100f79190610bfc565b610394565b60405161010991906110f5565b60405180910390f35b34801561011e57600080fd5b5061013960048036038101906101349190610bfc565b6103ac565b60405161014893929190611110565b60405180910390f35b34801561015d57600080fd5b506101666103e3565b005b34801561017457600080fd5b5061017d610672565b60405161018a91906110f5565b60405180910390f35b61019b610678565b005b3480156101a957600080fd5b506101c460048036038101906101bf9190610bfc565b610796565b005b3480156101d257600080fd5b506101db61087f565b6040516101e891906110f5565b60405180910390f35b3480156101fd57600080fd5b50610206610887565b6040516102139190610f9f565b60405180910390f35b34801561022857600080fd5b50610243600480360381019061023e9190610bfc565b6108ab565b6040516102509190610fba565b60405180910390f35b34801561026557600080fd5b50610280600480360381019061027b9190610c25565b6108cb565b005b34801561028e57600080fd5b506102a960048036038101906102a49190610bfc565b6109e7565b005b60008054906101000a900473ffffffffffffffffffffffffffffffffffffffff1673ffffffffffffffffffffffffffffffffffffffff163373ffffffffffffffffffffffffffffffffffffffff1614610339576040517f08c379a000000000000000000000000000000000000000000000000000000000815260040161033090610ff5565b60405180910390fd5b6001600260008373ffffffffffffffffffffffffffffffffffffffff1673ffffffffffffffffffffffffffffffffffffffff16815260200190815260200160002060006101000a81548160ff02191690831515021790555050565b60046020528060005260406000206000915090505481565b60016020528060005260406000206000915090508060000154908060010160009054906101000a900460ff16908060020154905083565b600160003373ffffffffffffffffffffffffffffffffffffffff1673ffffffffffffffffffffffffffffffffffffffff16815260200190815260200160002060010160009054906101000a900460ff16610472576040517f08c379a000000000000000000000000000000000000000000000000000000000815260040161046990610fd5565b60405180910390fd5b6000600160003373ffffffffffffffffffffffffffffffffffffffff1673ffffffffffffffffffffffffffffffffffffffff16815260200190815260200160002060020154146104f7576040517f08c379a00000000000000000000000000000000000000000000000000000000081526004016104ee906110d5565b60405180910390fd5b600354600460003373ffffffffffffffffffffffffffffffffffffffff1673ffffffffffffffffffffffffffffffffffffffff16815260200190815260200160002054426105459190611158565b1115610586576040517f08c379a000000000000000000000000000000000000000000000000000000000815260040161057d90611075565b60405180910390fd5b6000600160003373ffffffffffffffffffffffffffffffffffffffff1673ffffffffffffffffffffffffffffffffffffffff1681526020019081526020016000206000015490503373ffffffffffffffffffffffffffffffffffffffff166108fc829081150290604051600060405180830381858888f19350505050158015610613573d6000803e3d6000fd5b506000600160003373ffffffffffffffffffffffffffffffffffffffff1673ffffffffffffffffffffffffffffffffffffffff16815260200190815260200160002060010160006101000a81548160ff02191690831515021790555050565b60035481565b600034116106bb576040517f08c379a00000000000000000000000000000000000000000000000000000000081526004016106b2906110b5565b60405180910390fd5b60405180606001604052803481526020016001151581526020016000815250600160003373ffffffffffffffffffffffffffffffffffffffff1673ffffffffffffffffffffffffffffffffffffffff1681526020019081526020016000206000820151816000015560208201518160010160006101000a81548160ff0219169083151502179055506040820151816002015590505042600460003373ffffffffffffffffffffffffffffffffffffffff1673ffffffffffffffffffffffffffffffffffffffff16815260200190815260200160002081905550565b60008054906101000a900473ffffffffffffffffffffffffffffffffffffffff1673ffffffffffffffffffffffffffffffffffffffff163373ffffffffffffffffffffffffffffffffffffffff1614610824576040517f08c379a000000000000000000000000000000000000000000000000000000000815260040161081b90610ff5565b60405180910390fd5b6000600260008373ffffffffffffffffffffffffffffffffffffffff1673ffffffffffffffffffffffffffffffffffffffff16815260200190815260200160002060006101000a81548160ff02191690831515021790555050565b600047905090565b60008054906101000a900473ffffffffffffffffffffffffffffffffffffffff1681565b60026020528060005260406000206000915054906101000a900460ff1681565b600160003373ffffffffffffffffffffffffffffffffffffffff1673ffffffffffffffffffffffffffffffffffffffff16815260200190815260200160002060010160009054906101000a900460ff1661095a576040517f08c379a000000000000000000000000000000000000000000000000000000000815260040161095190611095565b60405180910390fd5b6000811161099d576040517f08c379a000000000000000000000000000000000000000000000000000000000815260040161099490611055565b60405180910390fd5b80600160003373ffffffffffffffffffffffffffffffffffffffff1673ffffffffffffffffffffffffffffffffffffffff1681526020019081526020016000206002018190555050565b600260003373ffffffffffffffffffffffffffffffffffffffff1673ffffffffffffffffffffffffffffffffffffffff16815260200190815260200160002060009054906101000a900460ff16610a73576040517f08c379a0000000000000000000000000000000000000000000000000000000008152600401610a6a90611015565b60405180910390fd5b6000600160008373ffffffffffffffffffffffffffffffffffffffff1673ffffffffffffffffffffffffffffffffffffffff1681526020019081526020016000206002015411610af8576040517f08c379a0000000000000000000000000000000000000000000000000000000008152600401610aef90611035565b60405180910390fd5b6000600160008373ffffffffffffffffffffffffffffffffffffffff1673ffffffffffffffffffffffffffffffffffffffff1681526020019081526020016000206002015490508173ffffffffffffffffffffffffffffffffffffffff166108fc829081150290604051600060405180830381858888f19350505050158015610b85573d6000803e3d6000fd5b506000600160008473ffffffffffffffffffffffffffffffffffffffff1673ffffffffffffffffffffffffffffffffffffffff168152602001908152602001600020600201819055505050565b600081359050610be181611203565b92915050565b600081359050610bf68161121a565b92915050565b600060208284031215610c0e57600080fd5b6000610c1c84828501610bd2565b91505092915050565b600060208284031215610c3757600080fd5b6000610c4584828501610be7565b91505092915050565b610c578161118c565b82525050565b610c668161119e565b82525050565b6000610c79601083611147565b91507f4e6f2061637469766520706f6c696379000000000000000000000000000000006000830152602082019050919050565b6000610cb9602683611147565b91507f4f6e6c7920746865206f776e65722063616e20706572666f726d20746869732060008301527f616374696f6e00000000000000000000000000000000000000000000000000006020830152604082019050919050565b6000610d1f602d83611147565b91507f596f7520617265206e6f7420617574686f72697a656420746f20706572666f7260008301527f6d207468697320616374696f6e000000000000000000000000000000000000006020830152604082019050919050565b6000610d85600e83611147565b91507f4e6f20636c61696d2066696c65640000000000000000000000000000000000006000830152602082019050919050565b6000610dc5602683611147565b91507f436c61696d20616d6f756e74206d75737420626520677265617465722074686160008301527f6e207a65726f00000000000000000000000000000000000000000000000000006020830152604082019050919050565b6000610e2b602383611147565b91507f43616e6e6f742063616e63656c20616674657220636f6e74726163742070657260008301527f696f6400000000000000000000000000000000000000000000000000000000006020830152604082019050919050565b6000610e91601483611147565b91507f506f6c696379206973206e6f74206163746976650000000000000000000000006000830152602082019050919050565b6000610ed1602b83611147565b91507f496e737572616e6365207072656d69756d206d7573742062652067726561746560008301527f72207468616e207a65726f0000000000000000000000000000000000000000006020830152604082019050919050565b6000610f37602483611147565b91507f43616e6e6f742063616e63656c207768696c6520636c61696d2069732070656e60008301527f64696e67000000000000000000000000000000000000000000000000000000006020830152604082019050919050565b610f99816111ca565b82525050565b6000602082019050610fb46000830184610c4e565b92915050565b6000602082019050610fcf6000830184610c5d565b92915050565b60006020820190508181036000830152610fee81610c6c565b9050919050565b6000602082019050818103600083015261100e81610cac565b9050919050565b6000602082019050818103600083015261102e81610d12565b9050919050565b6000602082019050818103600083015261104e81610d78565b9050919050565b6000602082019050818103600083015261106e81610db8565b9050919050565b6000602082019050818103600083015261108e81610e1e565b9050919050565b600060208201905081810360008301526110ae81610e84565b9050919050565b600060208201905081810360008301526110ce81610ec4565b9050919050565b600060208201905081810360008301526110ee81610f2a565b9050919050565b600060208201905061110a6000830184610f90565b92915050565b60006060820190506111256000830186610f90565b6111326020830185610c5d565b61113f6040830184610f90565b949350505050565b600082825260208201905092915050565b6000611163826111ca565b915061116e836111ca565b925082821015611181576111806111d4565b5b828203905092915050565b6000611197826111aa565b9050919050565b60008115159050919050565b600073ffffffffffffffffffffffffffffffffffffffff82169050919050565b6000819050919050565b7f4e487b7100000000000000000000000000000000000000000000000000000000600052601160045260246000fd5b61120c8161118c565b811461121757600080fd5b50565b611223816111ca565b811461122e57600080fd5b5056fea26469706673582212207e74917d9078ca47f64810ce2e986c683dae2180074585cc4af6d13c382ede0664736f6c63430008000033",
  "immutableReferences": {},
  "source": "// SPDX-License-Identifier: MIT\r\npragma solidity ^0.8.0;\r\n\r\ncontract CropInsurance {\r\n    address public owner;\r\n    mapping(address => Policy) public policies;\r\n\r\n    struct Policy {\r\n        uint256 premium; // Ph bo him\r\n        bool isActive;   // Trng thi hp ng\r\n        uint256 claimAmount; // S tin yu cu bi thng\r\n    }\r\n\r\n    // Qun l quyn truy cp\r\n    mapping(address => bool) public authorized;\r\n\r\n    // Thi gian hp ng c hiu lc (v d 30 ngy)\r\n    uint256 public contractDuration = 30 days;\r\n    mapping(address => uint256) public policyStartTime;\r\n\r\n    modifier onlyOwner() {\r\n        require(msg.sender == owner, \"Only the owner can perform this action\");\r\n        _;\r\n    }\r\n\r\n    modifier onlyAuthorized() {\r\n        require(authorized[msg.sender], \"You are not authorized to perform this action\");\r\n        _;\r\n    }\r\n\r\n    constructor() {\r\n        owner = msg.sender; // Ch s hu hp ng\r\n    }\r\n\r\n    // Cp quyn truy cp\r\n    function grantAccess(address _address) external onlyOwner {\r\n        authorized[_address] = true;\r\n    }\r\n\r\n    // Thu hi quyn truy cp\r\n    function revokeAccess(address _address) external onlyOwner {\r\n        authorized[_address] = false;\r\n    }\r\n\r\n    // Mua hp ng bo him\r\n    function buyInsurance() external payable {\r\n        require(msg.value > 0, \"Insurance premium must be greater than zero\");\r\n\r\n        policies[msg.sender] = Policy({\r\n            premium: msg.value,\r\n            isActive: true,\r\n            claimAmount: 0\r\n        });\r\n\r\n        policyStartTime[msg.sender] = block.timestamp;\r\n    }\r\n\r\n    // Np yu cu bi thng\r\n    function fileClaim(uint256 _claimAmount) external {\r\n        require(policies[msg.sender].isActive, \"Policy is not active\");\r\n        require(_claimAmount > 0, \"Claim amount must be greater than zero\");\r\n\r\n        policies[msg.sender].claimAmount = _claimAmount;\r\n    }\r\n\r\n    // Ph duyt yu cu bi thng\r\n    function approveClaim(address _policyHolder) external onlyAuthorized {\r\n        require(policies[_policyHolder].claimAmount > 0, \"No claim filed\");\r\n\r\n        uint256 claimAmount = policies[_policyHolder].claimAmount;\r\n        payable(_policyHolder).transfer(claimAmount);\r\n\r\n        // Reset claim sau khi ph duyt\r\n        policies[_policyHolder].claimAmount = 0;\r\n    }\r\n\r\n    // Hy hp ng bo him\r\n    function cancelPolicy() external {\r\n        require(policies[msg.sender].isActive, \"No active policy\");\r\n        require(policies[msg.sender].claimAmount == 0, \"Cannot cancel while claim is pending\");\r\n        require(block.timestamp - policyStartTime[msg.sender] <= contractDuration, \"Cannot cancel after contract period\");\r\n\r\n        uint256 premiumAmount = policies[msg.sender].premium;\r\n        payable(msg.sender).transfer(premiumAmount);\r\n\r\n        policies[msg.sender].isActive = false;\r\n    }\r\n\r\n    // Kim tra s d hp ng\r\n    function contractBalance() external view returns (uint256) {\r\n        return address(this).balance;\r\n    }\r\n}\r\n",
  "sourcePath": "D:\\Hop_dong_thong_minh\\crop-insurance\\contracts\\CropInsurance.sol",
  "compiler": {
    "name": "solc",
    "version": "0.8.0+commit.c7dfd78e.Emscripten.clang"
  },
  "schemaVersion": "3.4.16",
  "updatedAt": "2024-12-15T02:00:32.419Z",
  "networkType": "ethereum",
  "devdoc": {
    "kind": "dev",
    "methods": {},
    "version": 1
  },
  "userdoc": {
    "kind": "user",
    "methods": {},
    "version": 1
  }
}